:080000000C9456000C94000062
:100008000C9400000C9400000C9400000C94000068
:100018000C9400000C9400000C9400000C94000058
:100028000C9400000C9400000C9400000C94000048
:100038000C9400000C9400000C9400000C94000038
:100048000C9400000C9400000C9400000C94000028
:100058000C9400000C9400000C9400000C94000018
:100068001027E80364000A000100001000011000D6
:10007800010054656D703A25642043202020004813
:10008800756D3A25642025252020200044485431E8
:1000980031204572726F7220202000000F0000038B
:1000A80094000000F894EE27EFBBF1E0F5BFE5BF40
:1000B8008DE0A2E0BB27ED938A95E9F780E098E010
:1000C800A0E0B1E0ED930197E9F7E4EAF0E085916B
:1000D8009591009761F0A591B59105901590BF0194
:1000E800F00105900D920197E1F7FB01F0CFE0E0F8
:1000F800EEBBEFEFEDBFE8E0EEBFC0E0D3E00C945D
:100108009101BA93AA932597E0E0E883E983EA830B
:10011800EB83EC831A930A93529A5A98A2E1B0E0BF
:100128000E94DF035A9A80EA8A95F1F752984A9B0F
:1001380002C0E1E045C04A9BFECF4A99FECF00E0ED
:10014800053000F510E01830D8F44A9BFECF80EA5D
:100158008A95F1F74A9B10C0E02FF0E0DE01129675
:10016800EA0FFB1FBF011080E7E0E11BA1E00E943E
:10017800F103E129DB01EC934A99FECF1F5FE3CF3E
:100188000F5FDECFAA81BB27EB81F0E0AE0FBF1F68
:10019800EC81F0E0AE0FBF1FED81F0E0AE0FBF1FA6
:1001A800EE81F0E0EA17FB0751F4EA81AF81B885E8
:1001B800EC93EC81A985BA85EC93E0E001C0E2E01C
:1001C800198108812B9608955D9A8BE08A95F1F73D
:1001D8005D988BE08A95F1F70895AA93E881E0711C
:1001E80011F05E9A01C05E98E881E07211F05F9AA2
:1001F80001C05F98E881E07411F0289A01C028983E
:10020800E881E07811F0299A01C02998DDDF1FC044
:10021800AA935C98E881E07FAE2FDFDFE881E29562
:10022800E07FAE2FDADFA2E0B0E00E94DF030FC06C
:10023800AA935C9AE881E07FAE2FCFDFE881E29550
:10024800E07FAE2FCADF88EC90E00197F1F72196A6
:100258000895549A5C98559A5D98569A579A209A98
:10026800219A5E985F9828982998A4E1B0E00E94A6
:10027800DF03A0E3B2DFA5E0B0E00E94DF03A0E364
:10028800ACDF88E592E00197F1F7A0E3A6DFA5E0EF
:10029800B0E00E94DF03A0E2A0DFA5E0B0E00E948A
:1002A800DF03A8E2B5DFA1E0B0E00E94DF03ACE025
:1002B800AFDFA1E0B0E00E94DF03A1E0A9DFA2E088
:1002C800B0E00E94DF03A6E0A3DFA1E022C0AA936A
:1002D8001A93E981E03019F4EA81E05802C0EA8112
:1002E800E0541E2FA12F94DF188123960895BA9306
:1002F800AA93A881B981EC91E03031F0ED91A883FF
:10030800B983AE2F95DFF5CF22960895A1E080DF5F
:10031800A2E0B0E00E94DF03089561979ADFF6DF5C
:10032800E4E0F0E0FA93EA93A3E0B0E0EADEE0303C
:1003380061F5E0E0EA93A0E0CADFFE01FA93EA93F0
:10034800EAE7F0E0FA93EA93E42DFF276627772798
:100358000E94010484E0DAD12896DE01C8DFE0E0DB
:10036800EA93A1E0B4DFFE01FA93EA93E7E8F0E04C
:10037800FA93EA93E32DFF27662777270E94010463
:1003880084E0C4D12896DE0106C0E0E0EA93A0E04C
:100398009EDFA0E0B3E0ABDFA0EDB7E00E94DF0393
:1003A800BFCFFFCFBA93AA931A930A93AA81BB81AE
:1003B80012960E94F903309759F1AA81BB811496CD
:1003C8000E94F9038F01309761F00230E0E01E07C8
:1003D80098F0F80131978F01AA81BB811496ED93AB
:1003E800FC93AA81BB811296ED91FD913196FE9303
:1003F800EE933197AC81A083AA81BB810E94F90357
:10040800FF232AF0ED91FD913196FE93EE9306C0FD
:10041800AA81BB81EFEFFFEFED93FC93198108816F
:1004280025960895BA93AA9326970E94060410E089
:10043800AC85BD85E0E0F0E0ED93FC93EA89FB89AB
:100448003196EA8BFB8B3197E4912E2FE03009F43B
:1004580055C1E12FE03059F4253211F411E006C0FE
:100468002A93AD85BE85EF85F889099546C1E130A7
:10047800C9F4253239F42A93AD85BE85EF85F8890C
:1004880009953AC112E040E000E02D3211F401E094
:1004980034C12B3211F44BE230C1203211F440E266
:1004A8002CC102C0E23039F450E013E0203311F4DB
:1004B800006823C103C0E33009F01FC1203310F0E6
:1004C8002A3308F007C0AAE05A9F502DE22FE053C4
:1004D8005E0F13C1E22FE33669F4E889F98934978E
:1004E800E88BF98BA481AA93AD85BE85EF85F88941
:1004F800099502C1E33791F4E889F9893497E88BC3
:10050800F98BA889B98914960E94F903EE83FF83B1
:10051800AE81BF810E94C6031E2F14C0E037B1F41C
:10052800E889F9893497E88BF98BA889B9891496F1
:100538000E94F903EE83FF83AE81BF810E94D2033C
:100548001E2F086002600F7730E042C0E43611F0D9
:10055800E93611F4046002C0E53731F4E8E6F0E06A
:10056800EE83FF8315E00CC0E83511F4086003C082
:10057800E83709F0C1C0E2E7F0E0EE83FF8314E05A
:1005880002FF1AC0E889F9893497E88BF98BA889A2
:10059800B98914960E94F903EA87FB87AB85AA23D9
:1005A8002AF40E94ED03EA87FB874DE2403011F000
:1005B8001F5F01C00B7F0CC0E889F9893497E88B6D
:1005C800F98BA889B98914960E94F903EA87FB87F1
:1005D80000FD15C0151798F407FF08C002FF04C0F6
:1005E8000B7F242F115001C020E301C020E22A9381
:1005F800AD85BE85EF85F88909955150EBCF312F30
:1006080001FF1BC03030C1F003FF06C0EE81FF813F
:100618002591EE83FF8305C0AE81BF812D91AE8306
:10062800BF832A93AD85BE85EF85F889099550303B
:1006380009F051503150E6CF52C020E3EE81FF81DE
:100648000E94FD03E887F987EE81FF813296EE83E9
:10065800FF83E885F985AA85BB85AE17BF0750F0EB
:100668002F5FA885B985EA85FB85EA1BFB0BEA871E
:10067800FB87EFCF2A3328F003FF02C0295F01C0B0
:10068800295D04FD1DC0213320F4A885B985119783
:1006980009F409C0531710F000FF01C01AC020E286
:1006A80007FF0EC020E3006102FF0AC00B7F4A93D8
:1006B800AD85BE85EF85F8890995503009F0515010
:1006C8002A93AD85BE85EF85F8890995503009F0E4
:1006D80051503150A885B985129708F0AECF00FF68
:1006E8000BC0503049F05150E0E2EA93AD85BE8529
:1006F800EF85F8890995F5CF10E0A0CEAC85BD85CA
:100708000E94F9030E940D0464960895FF92F82E42
:1007180026970E940804DE011C960E94E9030E94A5
:10072800F903309719F4EFEFFFEF27C0DE011696B3
:100738000E94E9038D01DE011C960E94E9030E94D4
:10074800F903EE83FF83E0E0E887E987DE011A9684
:100758000E94E9030E94F903FA93EA931A930A9311
:10076800E6EDF1E0FA93EA93DE011A965BDE9F016B
:10077800AE81BF81E0E0EC93F9010E940F042A9654
:10078800FF900895BA93AA93A991B991EE27FF27EC
:100798006D91662311F03196FBCF0895BA93AA9311
:1007A800AA27BB27E991F9910590002011F011962D
:1007B800FBCFFD010895109639F080EA9FE001977C
:1007C800F1F7A8951197C9F708950024AF0DB01D4A
:1007D8000895F195E195F0400895EE230E2EEA2F45
:1007E80019F0EE0F0A94E9F70895ED91FC9111972D
:1007F80008950590F491E02D08957A936A93FA93F9
:10080800EA9308955A934A933A932A931A930A9328
:1008180008955D814C813B812A8119810881089561
:00000001FF
