:0A0000000C94C5000C9400000C9451
:10000A0000000C9400000C9400000C9400000C9466
:10001A0000000C9400000C9400000C9400000C9456
:10002A0000000C9400000C9400000C9400000C9446
:10003A0000000C9400000C9400000C9400000C9436
:10004A0000000C9400000C9400000C9400000C9426
:10005A0000000C9400000C9400000C94000010277F
:10006A00E80364000A00010000100001100001000A
:10007A0044485431312052656164657200496E69A1
:10008A007469616C697A696E672E2E2E00202020B1
:10009A0020202020202020202020202020005465FD
:1000AA006D703A25336420430048756D3A253364F0
:1000BA00202525004448543131204572726F723A26
:1000CA00004E6F20526573706F6E7365202020009A
:1000DA00496E69742074696D656F757420200044D7
:1000EA006174612074696D656F75742020005265B2
:1000FA0061642074696D656F7574202000426974AB
:10010A002074696D656F75742020200043686563EB
:10011A006B73756D206572726F7200556E6B6E6FC0
:10012A00776E206572726F7220000D0000037A00EC
:10013A0010000D03870011001D03970011002E0304
:10014A00970011003F0397001100500397000D001C
:10015A006103BE000F006E03CB000F007D03DA00BF
:10016A000F008C03E9000F009B03F8000F00AA039D
:10017A0007010F00B90316010F00C803250100008B
:10018A00F894EE27EFBBF1E0F5BFE5BF8DE0A2E002
:10019A00BB27ED938A95E9F780E098E0A0E0B1E00B
:1001AA00ED930197E9F7E4E3F1E0859195910097E2
:1001BA0061F0A591B59105901590BF01F0010590E8
:1001CA000D920197E1F7FB01F0CFE0E0EEBBEFEF14
:1001DA00EDBFE8E0EEBFC0E0D3E00C943802BA937A
:1001EA00AA932597E0E0E883E983EA83EB83EC832B
:1001FA000E94110520E030E0529A5A98A2E1B0E03C
:10020A000E94E8045A9A8AE08A95F1F7529883E0A4
:10021A008A95F1F720E030E04A9B09C02F5F3F4FF3
:10022A002536E0E03E0710F0E1E072C0F5CF20E0AD
:10023A0030E04A9909C02F5F3F4F2536E0E03E077C
:10024A0010F0E2E065C0F5CF20E030E04A9B09C03B
:10025A002F5F3F4F2536E0E03E0710F0E3E058C03D
:10026A00F5CF00E00530B0F510E0183088F520E051
:10027A0030E04A9909C02F5F3F4F2536E0E03E073C
:10028A0010F0E4E045C0F5CF8DE08A95F1F74A9B7E
:10029A0010C0E02FF0E0DE011496EA0FFB1FBF0149
:1002AA001080E7E0E11BA1E00E94FA04E129DB01EA
:1002BA00EC9320E030E04A9B09C02F5F3F4F253680
:1002CA00E0E03E0710F0E5E023C0F5CF1F5FCDCF99
:1002DA000F5FC8CFAC81BB27ED81F0E0AE0FBF1F27
:1002EA00EE81F0E0AE0FBF1FEF81F0E0AE0FBF1F4F
:1002FA00E885F0E0EA17FB0751F4EC81A985BA8595
:10030A00EC93EE81AB85BC85EC93E0E001C0E6E0BE
:10031A000E9418052D9608955D9A81E08A95F1F755
:10032A005D9881E08A95F1F70895AA93E881E071D2
:10033A0011F05E9A01C05E98E881E07211F05F9A4E
:10034A0001C05F98E881E07411F0289A01C02898EA
:10035A00E881E07811F0299A01C02998DDDF1EC0F2
:10036A00AA935C98E881E07FAE2FDFDFE881E2950F
:10037A00E07FAE2FDADFA2E0B0E00E94E8040EC010
:10038A00AA935C9AE881E07FAE2FCFDFE881E295FD
:10039A00E07FAE2FCADF81E18A95F1F721960895B1
:1003AA00549A559A569A579A209A219A5C985D9827
:1003BA005E985F9828982998A4E1B0E00E94E80422
:1003CA00A0E3B3DFA5E0B0E00E94E804A0E3ADDF5C
:1003DA0082E38A95F1F7A0E3A8DFA5E0B0E00E94E6
:1003EA00E804A0E2A2DFA5E0B0E00E94E804A8E2E7
:1003FA00B7DFA1E0B0E00E94E804ACE0B1DFA1E021
:10040A00B0E00E94E804A1E0ABDFA2E0B0E00E9405
:10041A00E804A6E0A5DFA1E022C0AA931A93E98125
:10042A00E03019F4EA81E05802C0EA81E0541E2F54
:10043A00A12F96DF188123960895BA93AA93A881CB
:10044A00B981EC91E03031F0ED91A883B983AE2FF8
:10045A0097DFF5CF22960895A1E082DFA2E0B0E00F
:10046A000E94E804089561979BDFF6DFE0E0EA93D3
:10047A00A0E0D3DFA0E0B3E0E0DFE0E0EA93A1E0B0
:10048A00CCDFADE0B3E0D9DFA0EDB7E00E94E8042D
:10049A00E4E0F0E0FA93EA93A3E0B0E0A0DE1E2FD6
:1004AA001030D1F5E0E0EA93A0E0B7DFADE1B3E0C8
:1004BA00C4DFE0E0EA93A1E0B0DFAEE2B3E0BDDF83
:1004CA00E0E0EA93A0E0A9DFFE01FA93EA93E8EA02
:1004DA00F0E0FA93EA93E42DFF27662777270E9434
:1004EA000A0584E01BD22896DE01A7DFE0E0EA9342
:1004FA00A1E093DFFE01FA93EA93E3EBF0E0FA93CB
:10050A00EA93E32DFF27662777270E940A0584E0EE
:10051A0005D22896DE0147C0E0E0EA93A0E07DDF3D
:10052A00AFE3B3E08ADFE0E0EA93A1E076DFA0E59B
:10053A00B3E083DFE0E0EA93A0E06FDFA1E6B3E097
:10054A007CDFE0E0EA93A1E068DFE12FF0E0E13050
:10055A00A0E0FA0719F4AEE6B3E025C0E230A0E065
:10056A00FA0719F4ADE7B3E01EC0E330A0E0FA07DA
:10057A0019F4ACE8B3E017C0E430A0E0FA0719F4C4
:10058A00ABE9B3E010C0E530A0E0FA0719F4AAEA33
:10059A00B3E009C0E630A0E0FA0719F4A9EBB3E02A
:1005AA0002C0A8ECB3E049DFA0EDB7E00E94E8047E
:1005BA006FCFFFCFBA93AA931A930A93AA81BB81EA
:1005CA0012960E940205309759F1AA81BB811496AE
:1005DA000E9402058F01309761F00230E0E01E07A9
:1005EA0098F0F80131978F01AA81BB811496ED9397
:1005FA00FC93AA81BB811296ED91FD913196FE93EF
:10060A00EE933197AC81A083AA81BB810E94020537
:10061A00FF232AF0ED91FD913196FE93EE9306C0E9
:10062A00AA81BB81EFEFFFEFED93FC93198108815B
:10063A0025960895BA93AA9326970E940F0510E06B
:10064A00AC85BD85E0E0F0E0ED93FC93EA89FB8997
:10065A003196EA8BFB8B3197E4912E2FE03009F427
:10066A0055C1E12FE03059F4253211F411E006C0EA
:10067A002A93AD85BE85EF85F889099546C1E13093
:10068A00C9F4253239F42A93AD85BE85EF85F889F8
:10069A0009953AC112E040E000E02D3211F401E080
:1006AA0034C12B3211F44BE230C1203211F440E252
:1006BA002CC102C0E23039F450E013E0203311F4C7
:1006CA00006823C103C0E33009F01FC1203310F0D2
:1006DA002A3308F007C0AAE05A9F502DE22FE053B0
:1006EA005E0F13C1E22FE33669F4E889F98934977A
:1006FA00E88BF98BA481AA93AD85BE85EF85F8892D
:10070A00099502C1E33791F4E889F9893497E88BAE
:10071A00F98BA889B98914960E940205EE83FF8392
:10072A00AE81BF810E94CF041E2F14C0E037B1F4FE
:10073A00E889F9893497E88BF98BA889B9891496DD
:10074A000E940205EE83FF83AE81BF810E94DB0413
:10075A001E2F086002600F7730E042C0E43611F0C5
:10076A00E93611F4046002C0E53731F4E8E6F0E056
:10077A00EE83FF8315E00CC0E83511F4086003C06E
:10078A00E83709F0C1C0E2E7F0E0EE83FF8314E046
:10079A0002FF1AC0E889F9893497E88BF98BA8898E
:1007AA00B98914960E940205EA87FB87AB85AA23BA
:1007BA002AF40E94F604EA87FB874DE2403011F0E2
:1007CA001F5F01C00B7F0CC0E889F9893497E88B59
:1007DA00F98BA889B98914960E940205EA87FB87D2
:1007EA0000FD15C0151798F407FF08C002FF04C0E2
:1007FA000B7F242F115001C020E301C020E22A936D
:10080A00AD85BE85EF85F88909955150EBCF312F1B
:10081A0001FF1BC03030C1F003FF06C0EE81FF812B
:10082A002591EE83FF8305C0AE81BF812D91AE83F2
:10083A00BF832A93AD85BE85EF85F8890995503027
:10084A0009F051503150E6CF52C020E3EE81FF81CA
:10085A000E940605E887F987EE81FF813296EE83CA
:10086A00FF83E885F985AA85BB85AE17BF0750F0D7
:10087A002F5FA885B985EA85FB85EA1BFB0BEA870A
:10088A00FB87EFCF2A3328F003FF02C0295F01C09C
:10089A00295D04FD1DC0213320F4A885B98511976F
:1008AA0009F409C0531710F000FF01C01AC020E272
:1008BA0007FF0EC020E3006102FF0AC00B7F4A93C4
:1008CA00AD85BE85EF85F8890995503009F05150FC
:1008DA002A93AD85BE85EF85F8890995503009F0D0
:1008EA0051503150A885B985129708F0AECF00FF54
:1008FA000BC0503049F05150E0E2EA93AD85BE8515
:10090A00EF85F8890995F5CF10E0A0CEAC85BD85B5
:10091A000E9402050E94160564960895FF92F82E19
:10092A0026970E941105DE011C960E94F2040E947D
:10093A000205309719F4EFEFFFEF27C0DE01169694
:10094A000E94F2048D01DE011C960E94F2040E94AC
:10095A000205EE83FF83E0E0E887E987DE011A9665
:10096A000E94F2040E940205FA93EA931A930A93E8
:10097A00EFEDF2E0FA93EA93DE011A965BDE9F014D
:10098A00AE81BF81E0E0EC93F9010E9418052A9636
:10099A00FF900895BA93AA93A991B991EE27FF27D8
:1009AA006D91662311F03196FBCF0895BA93AA93FD
:1009BA00AA27BB27E991F9910590002011F0119619
:1009CA00FBCFFD010895109639F08AEF90E0019768
:1009DA00F1F7A8951197C9F708950024AF0DB01D36
:1009EA000895F195E195F0400895EE230E2EEA2F31
:1009FA0019F0EE0F0A94E9F70895ED91FC91119719
:100A0A0008950590F491E02D08957A936A93FA93E4
:100A1A00EA9308955A934A933A932A931A930A9314
:100A2A0008955D814C813B812A811981088108954D
:00000001FF
